{
  "contractName": "dBank",
  "abi": [
    {
      "inputs": [
        {
          "internalType": "contract Token",
          "name": "_token",
          "type": "address"
        }
      ],
      "stateMutability": "nonpayable",
      "type": "constructor"
    },
    {
      "anonymous": false,
      "inputs": [
        {
          "indexed": true,
          "internalType": "address",
          "name": "user",
          "type": "address"
        },
        {
          "indexed": false,
          "internalType": "uint256",
          "name": "collateralEtherAmount",
          "type": "uint256"
        },
        {
          "indexed": false,
          "internalType": "uint256",
          "name": "borrowedTokenAmount",
          "type": "uint256"
        }
      ],
      "name": "Borrow",
      "type": "event"
    },
    {
      "anonymous": false,
      "inputs": [
        {
          "indexed": true,
          "internalType": "address",
          "name": "user",
          "type": "address"
        },
        {
          "indexed": false,
          "internalType": "uint256",
          "name": "etherAmount",
          "type": "uint256"
        },
        {
          "indexed": false,
          "internalType": "uint256",
          "name": "timeStart",
          "type": "uint256"
        }
      ],
      "name": "Deposit",
      "type": "event"
    },
    {
      "anonymous": false,
      "inputs": [
        {
          "indexed": true,
          "internalType": "address",
          "name": "user",
          "type": "address"
        },
        {
          "indexed": false,
          "internalType": "uint256",
          "name": "fee",
          "type": "uint256"
        }
      ],
      "name": "PayOff",
      "type": "event"
    },
    {
      "anonymous": false,
      "inputs": [
        {
          "indexed": true,
          "internalType": "address",
          "name": "user",
          "type": "address"
        },
        {
          "indexed": false,
          "internalType": "uint256",
          "name": "etherAmount",
          "type": "uint256"
        },
        {
          "indexed": false,
          "internalType": "uint256",
          "name": "depositTime",
          "type": "uint256"
        },
        {
          "indexed": false,
          "internalType": "uint256",
          "name": "interest",
          "type": "uint256"
        }
      ],
      "name": "Withdraw",
      "type": "event"
    },
    {
      "inputs": [
        {
          "internalType": "address",
          "name": "",
          "type": "address"
        }
      ],
      "name": "collateralEther",
      "outputs": [
        {
          "internalType": "uint256",
          "name": "",
          "type": "uint256"
        }
      ],
      "stateMutability": "view",
      "type": "function",
      "constant": true
    },
    {
      "inputs": [
        {
          "internalType": "address",
          "name": "",
          "type": "address"
        }
      ],
      "name": "depositStart",
      "outputs": [
        {
          "internalType": "uint256",
          "name": "",
          "type": "uint256"
        }
      ],
      "stateMutability": "view",
      "type": "function",
      "constant": true
    },
    {
      "inputs": [
        {
          "internalType": "address",
          "name": "",
          "type": "address"
        }
      ],
      "name": "etherBalanceOf",
      "outputs": [
        {
          "internalType": "uint256",
          "name": "",
          "type": "uint256"
        }
      ],
      "stateMutability": "view",
      "type": "function",
      "constant": true
    },
    {
      "inputs": [
        {
          "internalType": "address",
          "name": "",
          "type": "address"
        }
      ],
      "name": "isBorrowed",
      "outputs": [
        {
          "internalType": "bool",
          "name": "",
          "type": "bool"
        }
      ],
      "stateMutability": "view",
      "type": "function",
      "constant": true
    },
    {
      "inputs": [
        {
          "internalType": "address",
          "name": "",
          "type": "address"
        }
      ],
      "name": "isDeposited",
      "outputs": [
        {
          "internalType": "bool",
          "name": "",
          "type": "bool"
        }
      ],
      "stateMutability": "view",
      "type": "function",
      "constant": true
    },
    {
      "inputs": [],
      "name": "deposit",
      "outputs": [],
      "stateMutability": "payable",
      "type": "function",
      "payable": true
    },
    {
      "inputs": [],
      "name": "withdraw",
      "outputs": [],
      "stateMutability": "payable",
      "type": "function",
      "payable": true
    },
    {
      "inputs": [],
      "name": "borrow",
      "outputs": [],
      "stateMutability": "payable",
      "type": "function",
      "payable": true
    },
    {
      "inputs": [],
      "name": "payOff",
      "outputs": [],
      "stateMutability": "payable",
      "type": "function",
      "payable": true
    }
  ],
  "bytecode": "0x60806040523480156200001157600080fd5b50604051620017b9380380620017b9833981810160405281019062000037919062000095565b806000806101000a81548173ffffffffffffffffffffffffffffffffffffffff021916908373ffffffffffffffffffffffffffffffffffffffff160217905550506200012e565b6000815190506200008f8162000114565b92915050565b600060208284031215620000ae57620000ad6200010f565b5b6000620000be848285016200007e565b91505092915050565b6000620000d482620000ef565b9050919050565b6000620000e882620000c7565b9050919050565b600073ffffffffffffffffffffffffffffffffffffffff82169050919050565b600080fd5b6200011f81620000db565b81146200012b57600080fd5b50565b61167b806200013e6000396000f3fe6080604052600436106100865760003560e01c806375a40d2a1161005957806375a40d2a14610119578063cdebd93214610156578063d0e30db014610193578063e68d35691461019d578063ff87930a146101a757610086565b8063179fc99f1461008b5780633ccfd60b146100c85780633fac68d5146100d257806373732024146100dc575b600080fd5b34801561009757600080fd5b506100b260048036038101906100ad9190610faf565b6101e4565b6040516100bf9190611286565b60405180910390f35b6100d06101fc565b005b6100da6105a5565b005b3480156100e857600080fd5b5061010360048036038101906100fe9190610faf565b610940565b604051610110919061118b565b60405180910390f35b34801561012557600080fd5b50610140600480360381019061013b9190610faf565b610960565b60405161014d9190611286565b60405180910390f35b34801561016257600080fd5b5061017d60048036038101906101789190610faf565b610978565b60405161018a919061118b565b60405180910390f35b61019b610998565b005b6101a5610c3b565b005b3480156101b357600080fd5b506101ce60048036038101906101c99190610faf565b610f6d565b6040516101db9190611286565b60405180910390f35b60026020528060005260406000206000915090505481565b60011515600460003373ffffffffffffffffffffffffffffffffffffffff1673ffffffffffffffffffffffffffffffffffffffff16815260200190815260200160002060009054906101000a900460ff1615151461028f576040517f08c379a000000000000000000000000000000000000000000000000000000000815260040161028690611266565b60405180910390fd5b6000600260003373ffffffffffffffffffffffffffffffffffffffff1673ffffffffffffffffffffffffffffffffffffffff1681526020019081526020016000205490506000600160003373ffffffffffffffffffffffffffffffffffffffff1673ffffffffffffffffffffffffffffffffffffffff168152602001908152602001600020544261032091906113f3565b90506000662386f26fc10000600260003373ffffffffffffffffffffffffffffffffffffffff1673ffffffffffffffffffffffffffffffffffffffff168152602001908152602001600020546103769190611368565b6301e337316103859190611399565b9050600082826103959190611399565b90503373ffffffffffffffffffffffffffffffffffffffff166108fc859081150290604051600060405180830381858888f193505050501580156103dd573d6000803e3d6000fd5b5060008054906101000a900473ffffffffffffffffffffffffffffffffffffffff1673ffffffffffffffffffffffffffffffffffffffff166340c10f1933836040518363ffffffff1660e01b8152600401610439929190611162565b600060405180830381600087803b15801561045357600080fd5b505af1158015610467573d6000803e3d6000fd5b505050506000600160003373ffffffffffffffffffffffffffffffffffffffff1673ffffffffffffffffffffffffffffffffffffffff168152602001908152602001600020819055506000600260003373ffffffffffffffffffffffffffffffffffffffff1673ffffffffffffffffffffffffffffffffffffffff168152602001908152602001600020819055506000600460003373ffffffffffffffffffffffffffffffffffffffff1673ffffffffffffffffffffffffffffffffffffffff16815260200190815260200160002060006101000a81548160ff0219169083151502179055503373ffffffffffffffffffffffffffffffffffffffff167f02f25270a4d87bea75db541cdfe559334a275b4a233520ed6c0a2429667cca94858584604051610597939291906112ca565b60405180910390a250505050565b60011515600560003373ffffffffffffffffffffffffffffffffffffffff1673ffffffffffffffffffffffffffffffffffffffff16815260200190815260200160002060009054906101000a900460ff16151514610638576040517f08c379a000000000000000000000000000000000000000000000000000000000815260040161062f906111e6565b60405180910390fd5b60008054906101000a900473ffffffffffffffffffffffffffffffffffffffff1673ffffffffffffffffffffffffffffffffffffffff166323b872dd33306002600360003373ffffffffffffffffffffffffffffffffffffffff1673ffffffffffffffffffffffffffffffffffffffff168152602001908152602001600020546106c29190611368565b6040518463ffffffff1660e01b81526004016106e09392919061112b565b602060405180830381600087803b1580156106fa57600080fd5b505af115801561070e573d6000803e3d6000fd5b505050506040513d601f19601f820116820180604052508101906107329190610fdc565b610771576040517f08c379a0000000000000000000000000000000000000000000000000000000008152600401610768906111c6565b60405180910390fd5b6000600a600360003373ffffffffffffffffffffffffffffffffffffffff1673ffffffffffffffffffffffffffffffffffffffff168152602001908152602001600020546107bf9190611368565b90503373ffffffffffffffffffffffffffffffffffffffff166108fc82600360003373ffffffffffffffffffffffffffffffffffffffff1673ffffffffffffffffffffffffffffffffffffffff1681526020019081526020016000205461082691906113f3565b9081150290604051600060405180830381858888f19350505050158015610851573d6000803e3d6000fd5b506000600360003373ffffffffffffffffffffffffffffffffffffffff1673ffffffffffffffffffffffffffffffffffffffff168152602001908152602001600020819055506000600560003373ffffffffffffffffffffffffffffffffffffffff1673ffffffffffffffffffffffffffffffffffffffff16815260200190815260200160002060006101000a81548160ff0219169083151502179055503373ffffffffffffffffffffffffffffffffffffffff167ffd9bbd044fa427970e4d882ebbb4a89ce422dc29b23f2777a14a93ecdf42c644826040516109359190611286565b60405180910390a250565b60046020528060005260406000206000915054906101000a900460ff1681565b60036020528060005260406000206000915090505481565b60056020528060005260406000206000915054906101000a900460ff1681565b60001515600460003373ffffffffffffffffffffffffffffffffffffffff1673ffffffffffffffffffffffffffffffffffffffff16815260200190815260200160002060009054906101000a900460ff16151514610a2b576040517f08c379a0000000000000000000000000000000000000000000000000000000008152600401610a2290611226565b60405180910390fd5b662386f26fc10000341015610a75576040517f08c379a0000000000000000000000000000000000000000000000000000000008152600401610a6c90611206565b60405180910390fd5b34600260003373ffffffffffffffffffffffffffffffffffffffff1673ffffffffffffffffffffffffffffffffffffffff16815260200190815260200160002054610ac09190611312565b600260003373ffffffffffffffffffffffffffffffffffffffff1673ffffffffffffffffffffffffffffffffffffffff1681526020019081526020016000208190555042600160003373ffffffffffffffffffffffffffffffffffffffff1673ffffffffffffffffffffffffffffffffffffffff16815260200190815260200160002054610b4e9190611312565b600160003373ffffffffffffffffffffffffffffffffffffffff1673ffffffffffffffffffffffffffffffffffffffff168152602001908152602001600020819055506001600460003373ffffffffffffffffffffffffffffffffffffffff1673ffffffffffffffffffffffffffffffffffffffff16815260200190815260200160002060006101000a81548160ff0219169083151502179055503373ffffffffffffffffffffffffffffffffffffffff167f90890809c654f11d6e72a28fa60149770a0d11ec6c92319d6ceb2bb0a4ea1a153442604051610c319291906112a1565b60405180910390a2565b662386f26fc10000341015610c85576040517f08c379a0000000000000000000000000000000000000000000000000000000008152600401610c7c90611246565b60405180910390fd5b60001515600560003373ffffffffffffffffffffffffffffffffffffffff1673ffffffffffffffffffffffffffffffffffffffff16815260200190815260200160002060009054906101000a900460ff16151514610d18576040517f08c379a0000000000000000000000000000000000000000000000000000000008152600401610d0f906111a6565b60405180910390fd5b34600360003373ffffffffffffffffffffffffffffffffffffffff1673ffffffffffffffffffffffffffffffffffffffff16815260200190815260200160002054610d639190611312565b600360003373ffffffffffffffffffffffffffffffffffffffff1673ffffffffffffffffffffffffffffffffffffffff1681526020019081526020016000208190555060006002600360003373ffffffffffffffffffffffffffffffffffffffff1673ffffffffffffffffffffffffffffffffffffffff16815260200190815260200160002054610df49190611368565b905060008054906101000a900473ffffffffffffffffffffffffffffffffffffffff1673ffffffffffffffffffffffffffffffffffffffff166340c10f1933836040518363ffffffff1660e01b8152600401610e51929190611162565b600060405180830381600087803b158015610e6b57600080fd5b505af1158015610e7f573d6000803e3d6000fd5b505050506001600560003373ffffffffffffffffffffffffffffffffffffffff1673ffffffffffffffffffffffffffffffffffffffff16815260200190815260200160002060006101000a81548160ff0219169083151502179055503373ffffffffffffffffffffffffffffffffffffffff167fe1979fe4c35e0cef342fef5668e2c8e7a7e9f5d5d1ca8fee0ac6c427fa4153af600360003373ffffffffffffffffffffffffffffffffffffffff1673ffffffffffffffffffffffffffffffffffffffff1681526020019081526020016000205483604051610f629291906112a1565b60405180910390a250565b60016020528060005260406000206000915090505481565b600081359050610f9481611617565b92915050565b600081519050610fa98161162e565b92915050565b600060208284031215610fc557610fc46114cd565b5b6000610fd384828501610f85565b91505092915050565b600060208284031215610ff257610ff16114cd565b5b600061100084828501610f9a565b91505092915050565b61101281611427565b82525050565b61102181611439565b82525050565b6000611034601983611301565b915061103f826114d2565b602082019050919050565b6000611057601b83611301565b9150611062826114fb565b602082019050919050565b600061107a601683611301565b915061108582611524565b602082019050919050565b600061109d602083611301565b91506110a88261154d565b602082019050919050565b60006110c0601c83611301565b91506110cb82611576565b602082019050919050565b60006110e3602583611301565b91506110ee8261159f565b604082019050919050565b6000611106601983611301565b9150611111826115ee565b602082019050919050565b61112581611465565b82525050565b60006060820190506111406000830186611009565b61114d6020830185611009565b61115a604083018461111c565b949350505050565b60006040820190506111776000830185611009565b611184602083018461111c565b9392505050565b60006020820190506111a06000830184611018565b92915050565b600060208201905081810360008301526111bf81611027565b9050919050565b600060208201905081810360008301526111df8161104a565b9050919050565b600060208201905081810360008301526111ff8161106d565b9050919050565b6000602082019050818103600083015261121f81611090565b9050919050565b6000602082019050818103600083015261123f816110b3565b9050919050565b6000602082019050818103600083015261125f816110d6565b9050919050565b6000602082019050818103600083015261127f816110f9565b9050919050565b600060208201905061129b600083018461111c565b92915050565b60006040820190506112b6600083018561111c565b6112c3602083018461111c565b9392505050565b60006060820190506112df600083018661111c565b6112ec602083018561111c565b6112f9604083018461111c565b949350505050565b600082825260208201905092915050565b600061131d82611465565b915061132883611465565b9250827fffffffffffffffffffffffffffffffffffffffffffffffffffffffffffffffff0382111561135d5761135c61146f565b5b828201905092915050565b600061137382611465565b915061137e83611465565b92508261138e5761138d61149e565b5b828204905092915050565b60006113a482611465565b91506113af83611465565b9250817fffffffffffffffffffffffffffffffffffffffffffffffffffffffffffffffff04831182151516156113e8576113e761146f565b5b828202905092915050565b60006113fe82611465565b915061140983611465565b92508282101561141c5761141b61146f565b5b828203905092915050565b600061143282611445565b9050919050565b60008115159050919050565b600073ffffffffffffffffffffffffffffffffffffffff82169050919050565b6000819050919050565b7f4e487b7100000000000000000000000000000000000000000000000000000000600052601160045260246000fd5b7f4e487b7100000000000000000000000000000000000000000000000000000000600052601260045260246000fd5b600080fd5b7f4572726f722c206c6f616e20616c72656164792074616b656e00000000000000600082015250565b7f4572726f722c2063616e2774207265636569766520746f6b656e730000000000600082015250565b7f4572726f722c206c6f616e206e6f742061637469766500000000000000000000600082015250565b7f4572726f722c6465706f736974206d757374206265203e3d302e303120455448600082015250565b7f4572726f722c6465706f73697420616c72656164792061637469766500000000600082015250565b7f4572726f722c20636f6c6c61746572616c206d757374206265203e3d20302e3060008201527f3120455448000000000000000000000000000000000000000000000000000000602082015250565b7f4572726f722c6e6f2070726576696f7573206465706f73697400000000000000600082015250565b61162081611427565b811461162b57600080fd5b50565b61163781611439565b811461164257600080fd5b5056fea2646970667358221220ae4c348400a629612a2ba72d0ecaca0cf7f357f8b5791b6a1f4b09b7eeb7beed64736f6c63430008050033",
  "immutableReferences": {},
  "source": "// SPDX-License-Identifier: MIT\npragma solidity ^0.8.0;\n\nimport \"./Token.sol\";\n\ncontract dBank {\n\n  //assign Token contract to variable\n  Token private token;\n\n  //add mappings\n  mapping(address => uint) public depositStart;\n  mapping(address => uint) public etherBalanceOf;\n  mapping(address => uint) public collateralEther;\n  mapping(address => bool) public isDeposited;\n  mapping(address => bool) public isBorrowed;\n\n  //add events\n  event Deposit(address indexed user,uint etherAmount,uint timeStart);\n  event Withdraw(address indexed user,uint etherAmount,uint depositTime,uint interest);\n  event Borrow(address indexed user, uint collateralEtherAmount, uint borrowedTokenAmount);\n  event PayOff(address indexed user, uint fee);\n\n  //pass as constructor argument deployed Token contract\n  constructor(Token _token) {\n\n    token = _token;\n    //assign token deployed contract to variable\n  }\n\n  function deposit() payable public {\n\n    //check if msg.sender didn't already deposited funds\n    require(isDeposited[msg.sender] == false,\"Error,deposit already active\");\n    //check if msg.value is >= than 0.01 ETH\n    require(msg.value >= 1e16,\"Error,deposit must be >=0.01 ETH\");\n     \n    //increase msg.sender ether deposit balance\n    etherBalanceOf[msg.sender] = etherBalanceOf[msg.sender] + msg.value;\n    //start msg.sender hodling time\n    depositStart[msg.sender] = depositStart[msg.sender] + block.timestamp;\n    \n    //set msg.sender deposit status to true\n    isDeposited[msg.sender] = true;\n     //emit Deposit event\n    emit Deposit(msg.sender, msg.value, block.timestamp);\n  }\n\n  function withdraw() payable public {\n\n    //check if msg.sender deposit status is true\n    require(isDeposited[msg.sender] == true,\"Error,no previous deposit\");\n    uint userBalance = etherBalanceOf[msg.sender];\n    //assign msg.sender ether deposit balance to variable for event\n\n    //check user's hodl time\n    uint depositTime = block.timestamp - depositStart[msg.sender];\n\n    //calc interest per second\n    uint interestPerSecond = 31668017 * (etherBalanceOf[msg.sender]/1e16);\n    uint interest = interestPerSecond * depositTime;\n    //calc accrued interest\n\n    //send eth to user\n    payable(msg.sender).transfer(userBalance);\n    token.mint(msg.sender, interest);\n    //send interest in tokens to user\n\n    //reset depositer data\n    depositStart[msg.sender] = 0;\n    etherBalanceOf[msg.sender] = 0;\n    isDeposited[msg.sender] = false;\n\n    //emit event\n    emit Withdraw(msg.sender,userBalance,depositTime,interest);\n  }\n\n  function borrow() payable public {\n\n    //check if collateral is >= than 0.01 ETH\n    require(msg.value>=1e16, 'Error, collateral must be >= 0.01 ETH');\n    //check if user doesn't have active loan\n    require(isBorrowed[msg.sender] == false, 'Error, loan already taken');\n     \n    //add msg.value to ether collateral\n    //this Ether will be locked till user payOff the loan\n    collateralEther[msg.sender] = collateralEther[msg.sender] + msg.value;\n\n    //calc tokens amount to mint, 50% of msg.value\n    uint tokensToMint = collateralEther[msg.sender] / 2;\n\n    //mint&send tokens to user\n    token.mint(msg.sender, tokensToMint);\n\n    //activate borrower's loan status\n    isBorrowed[msg.sender] = true;\n\n     //emit event\n    emit Borrow(msg.sender, collateralEther[msg.sender], tokensToMint);\n  }\n\n  function payOff() payable public {\n\n    //check if loan is active\n    require(isBorrowed[msg.sender] == true, 'Error, loan not active');\n    //transfer tokens from user back to the contract\n    require(token.transferFrom(msg.sender, address(this), collateralEther[msg.sender]/2), \"Error, can't receive tokens\"); //must approve dBank 1st\n    \n    //calc fee\n    uint fee = collateralEther[msg.sender]/10; //calc 10% fee\n\n    //send user's collateral minus fee\n    payable(msg.sender).transfer(collateralEther[msg.sender]-fee);\n  \n    //reset borrower's data\n    collateralEther[msg.sender] = 0;\n    isBorrowed[msg.sender] = false;\n\n    //emit event\n    emit PayOff(msg.sender, fee);\n\n  }\n}\n",
  "sourcePath": "/home/joel/Vol/Vol. C/Path Research/Blockchain/Dapp Projects/DeFi App/dbank/src/contracts/dBank.sol",
  "compiler": {
    "name": "solc",
    "version": "0.8.5+commit.a4f2e591.Emscripten.clang"
  },
  "schemaVersion": "3.4.3",
  "updatedAt": "2021-12-15T11:49:37.862Z",
  "networkType": "ethereum",
  "devdoc": {
    "kind": "dev",
    "methods": {},
    "version": 1
  },
  "userdoc": {
    "kind": "user",
    "methods": {},
    "version": 1
  }
}