{
  "contractName": "Token",
  "abi": [
    {
      "inputs": [],
      "stateMutability": "payable",
      "type": "constructor",
      "payable": true
    },
    {
      "anonymous": false,
      "inputs": [
        {
          "indexed": true,
          "internalType": "address",
          "name": "owner",
          "type": "address"
        },
        {
          "indexed": true,
          "internalType": "address",
          "name": "spender",
          "type": "address"
        },
        {
          "indexed": false,
          "internalType": "uint256",
          "name": "value",
          "type": "uint256"
        }
      ],
      "name": "Approval",
      "type": "event"
    },
    {
      "anonymous": false,
      "inputs": [
        {
          "indexed": true,
          "internalType": "address",
          "name": "from",
          "type": "address"
        },
        {
          "indexed": false,
          "internalType": "address",
          "name": "to",
          "type": "address"
        }
      ],
      "name": "MinterChanged",
      "type": "event"
    },
    {
      "anonymous": false,
      "inputs": [
        {
          "indexed": true,
          "internalType": "address",
          "name": "from",
          "type": "address"
        },
        {
          "indexed": true,
          "internalType": "address",
          "name": "to",
          "type": "address"
        },
        {
          "indexed": false,
          "internalType": "uint256",
          "name": "value",
          "type": "uint256"
        }
      ],
      "name": "Transfer",
      "type": "event"
    },
    {
      "inputs": [
        {
          "internalType": "address",
          "name": "owner",
          "type": "address"
        },
        {
          "internalType": "address",
          "name": "spender",
          "type": "address"
        }
      ],
      "name": "allowance",
      "outputs": [
        {
          "internalType": "uint256",
          "name": "",
          "type": "uint256"
        }
      ],
      "stateMutability": "view",
      "type": "function",
      "constant": true
    },
    {
      "inputs": [
        {
          "internalType": "address",
          "name": "spender",
          "type": "address"
        },
        {
          "internalType": "uint256",
          "name": "amount",
          "type": "uint256"
        }
      ],
      "name": "approve",
      "outputs": [
        {
          "internalType": "bool",
          "name": "",
          "type": "bool"
        }
      ],
      "stateMutability": "nonpayable",
      "type": "function"
    },
    {
      "inputs": [
        {
          "internalType": "address",
          "name": "account",
          "type": "address"
        }
      ],
      "name": "balanceOf",
      "outputs": [
        {
          "internalType": "uint256",
          "name": "",
          "type": "uint256"
        }
      ],
      "stateMutability": "view",
      "type": "function",
      "constant": true
    },
    {
      "inputs": [],
      "name": "decimals",
      "outputs": [
        {
          "internalType": "uint8",
          "name": "",
          "type": "uint8"
        }
      ],
      "stateMutability": "view",
      "type": "function",
      "constant": true
    },
    {
      "inputs": [
        {
          "internalType": "address",
          "name": "spender",
          "type": "address"
        },
        {
          "internalType": "uint256",
          "name": "subtractedValue",
          "type": "uint256"
        }
      ],
      "name": "decreaseAllowance",
      "outputs": [
        {
          "internalType": "bool",
          "name": "",
          "type": "bool"
        }
      ],
      "stateMutability": "nonpayable",
      "type": "function"
    },
    {
      "inputs": [
        {
          "internalType": "address",
          "name": "spender",
          "type": "address"
        },
        {
          "internalType": "uint256",
          "name": "addedValue",
          "type": "uint256"
        }
      ],
      "name": "increaseAllowance",
      "outputs": [
        {
          "internalType": "bool",
          "name": "",
          "type": "bool"
        }
      ],
      "stateMutability": "nonpayable",
      "type": "function"
    },
    {
      "inputs": [],
      "name": "minter",
      "outputs": [
        {
          "internalType": "address",
          "name": "",
          "type": "address"
        }
      ],
      "stateMutability": "view",
      "type": "function",
      "constant": true
    },
    {
      "inputs": [],
      "name": "name",
      "outputs": [
        {
          "internalType": "string",
          "name": "",
          "type": "string"
        }
      ],
      "stateMutability": "view",
      "type": "function",
      "constant": true
    },
    {
      "inputs": [],
      "name": "symbol",
      "outputs": [
        {
          "internalType": "string",
          "name": "",
          "type": "string"
        }
      ],
      "stateMutability": "view",
      "type": "function",
      "constant": true
    },
    {
      "inputs": [],
      "name": "totalSupply",
      "outputs": [
        {
          "internalType": "uint256",
          "name": "",
          "type": "uint256"
        }
      ],
      "stateMutability": "view",
      "type": "function",
      "constant": true
    },
    {
      "inputs": [
        {
          "internalType": "address",
          "name": "recipient",
          "type": "address"
        },
        {
          "internalType": "uint256",
          "name": "amount",
          "type": "uint256"
        }
      ],
      "name": "transfer",
      "outputs": [
        {
          "internalType": "bool",
          "name": "",
          "type": "bool"
        }
      ],
      "stateMutability": "nonpayable",
      "type": "function"
    },
    {
      "inputs": [
        {
          "internalType": "address",
          "name": "sender",
          "type": "address"
        },
        {
          "internalType": "address",
          "name": "recipient",
          "type": "address"
        },
        {
          "internalType": "uint256",
          "name": "amount",
          "type": "uint256"
        }
      ],
      "name": "transferFrom",
      "outputs": [
        {
          "internalType": "bool",
          "name": "",
          "type": "bool"
        }
      ],
      "stateMutability": "nonpayable",
      "type": "function"
    },
    {
      "inputs": [
        {
          "internalType": "address",
          "name": "dBank",
          "type": "address"
        }
      ],
      "name": "passMinterRole",
      "outputs": [
        {
          "internalType": "bool",
          "name": "",
          "type": "bool"
        }
      ],
      "stateMutability": "nonpayable",
      "type": "function"
    },
    {
      "inputs": [
        {
          "internalType": "address",
          "name": "account",
          "type": "address"
        },
        {
          "internalType": "uint256",
          "name": "amount",
          "type": "uint256"
        }
      ],
      "name": "mint",
      "outputs": [],
      "stateMutability": "nonpayable",
      "type": "function"
    }
  ],
  "bytecode": "0x60806040526040518060400160405280600881526020017f4a6f6520436f696e0000000000000000000000000000000000000000000000008152506040518060400160405280600281526020017f4a4300000000000000000000000000000000000000000000000000000000000081525081600390805190602001906200008892919062000107565b508060049080519060200190620000a192919062000107565b506012600560006101000a81548160ff021916908360ff160217905550505033600560016101000a81548173ffffffffffffffffffffffffffffffffffffffff021916908373ffffffffffffffffffffffffffffffffffffffff1602179055506200021c565b8280546200011590620001b7565b90600052602060002090601f01602090048101928262000139576000855562000185565b82601f106200015457805160ff191683800117855562000185565b8280016001018555821562000185579182015b828111156200018457825182559160200191906001019062000167565b5b50905062000194919062000198565b5090565b5b80821115620001b357600081600090555060010162000199565b5090565b60006002820490506001821680620001d057607f821691505b60208210811415620001e757620001e6620001ed565b5b50919050565b7f4e487b7100000000000000000000000000000000000000000000000000000000600052602260045260246000fd5b611997806200022c6000396000f3fe608060405234801561001057600080fd5b50600436106100ea5760003560e01c806340c10f191161008c578063a457c2d711610066578063a457c2d714610261578063a9059cbb14610291578063d7fc5b15146102c1578063dd62ed3e146102f1576100ea565b806340c10f19146101f757806370a082311461021357806395d89b4114610243576100ea565b806318160ddd116100c857806318160ddd1461015b57806323b872dd14610179578063313ce567146101a957806339509351146101c7576100ea565b806306fdde03146100ef578063075461721461010d578063095ea7b31461012b575b600080fd5b6100f7610321565b6040516101049190611368565b60405180910390f35b6101156103b3565b6040516101229190611332565b60405180910390f35b61014560048036038101906101409190611165565b6103d9565b604051610152919061134d565b60405180910390f35b6101636103f7565b604051610170919061148a565b60405180910390f35b610193600480360381019061018e9190611112565b610401565b6040516101a0919061134d565b60405180910390f35b6101b16104da565b6040516101be91906114a5565b60405180910390f35b6101e160048036038101906101dc9190611165565b6104f1565b6040516101ee919061134d565b60405180910390f35b610211600480360381019061020c9190611165565b6105a4565b005b61022d600480360381019061022891906110a5565b610642565b60405161023a919061148a565b60405180910390f35b61024b61068a565b6040516102589190611368565b60405180910390f35b61027b60048036038101906102769190611165565b61071c565b604051610288919061134d565b60405180910390f35b6102ab60048036038101906102a69190611165565b6107e9565b6040516102b8919061134d565b60405180910390f35b6102db60048036038101906102d691906110a5565b610807565b6040516102e8919061134d565b60405180910390f35b61030b600480360381019061030691906110d2565b610931565b604051610318919061148a565b60405180910390f35b606060038054610330906115ee565b80601f016020809104026020016040519081016040528092919081815260200182805461035c906115ee565b80156103a95780601f1061037e576101008083540402835291602001916103a9565b820191906000526020600020905b81548152906001019060200180831161038c57829003601f168201915b5050505050905090565b600560019054906101000a900473ffffffffffffffffffffffffffffffffffffffff1681565b60006103ed6103e66109b8565b84846109c0565b6001905092915050565b6000600254905090565b600061040e848484610b8b565b6104cf8461041a6109b8565b6104ca8560405180606001604052806028815260200161191560289139600160008b73ffffffffffffffffffffffffffffffffffffffff1673ffffffffffffffffffffffffffffffffffffffff16815260200190815260200160002060006104806109b8565b73ffffffffffffffffffffffffffffffffffffffff1673ffffffffffffffffffffffffffffffffffffffff16815260200190815260200160002054610e209092919063ffffffff16565b6109c0565b600190509392505050565b6000600560009054906101000a900460ff16905090565b600061059a6104fe6109b8565b84610595856001600061050f6109b8565b73ffffffffffffffffffffffffffffffffffffffff1673ffffffffffffffffffffffffffffffffffffffff16815260200190815260200160002060008973ffffffffffffffffffffffffffffffffffffffff1673ffffffffffffffffffffffffffffffffffffffff16815260200190815260200160002054610e8490919063ffffffff16565b6109c0565b6001905092915050565b600560019054906101000a900473ffffffffffffffffffffffffffffffffffffffff1673ffffffffffffffffffffffffffffffffffffffff163373ffffffffffffffffffffffffffffffffffffffff1614610634576040517f08c379a000000000000000000000000000000000000000000000000000000000815260040161062b906113ca565b60405180910390fd5b61063e8282610ee2565b5050565b60008060008373ffffffffffffffffffffffffffffffffffffffff1673ffffffffffffffffffffffffffffffffffffffff168152602001908152602001600020549050919050565b606060048054610699906115ee565b80601f01602080910402602001604051908101604052809291908181526020018280546106c5906115ee565b80156107125780601f106106e757610100808354040283529160200191610712565b820191906000526020600020905b8154815290600101906020018083116106f557829003601f168201915b5050505050905090565b60006107df6107296109b8565b846107da8560405180606001604052806025815260200161193d60259139600160006107536109b8565b73ffffffffffffffffffffffffffffffffffffffff1673ffffffffffffffffffffffffffffffffffffffff16815260200190815260200160002060008a73ffffffffffffffffffffffffffffffffffffffff1673ffffffffffffffffffffffffffffffffffffffff16815260200190815260200160002054610e209092919063ffffffff16565b6109c0565b6001905092915050565b60006107fd6107f66109b8565b8484610b8b565b6001905092915050565b6000600560019054906101000a900473ffffffffffffffffffffffffffffffffffffffff1673ffffffffffffffffffffffffffffffffffffffff163373ffffffffffffffffffffffffffffffffffffffff1614610899576040517f08c379a00000000000000000000000000000000000000000000000000000000081526004016108909061142a565b60405180910390fd5b81600560016101000a81548173ffffffffffffffffffffffffffffffffffffffff021916908373ffffffffffffffffffffffffffffffffffffffff1602179055503373ffffffffffffffffffffffffffffffffffffffff167f3b0007eb941cf645526cbb3a4fdaecda9d28ce4843167d9263b536a1f1edc0f6836040516109209190611332565b60405180910390a260019050919050565b6000600160008473ffffffffffffffffffffffffffffffffffffffff1673ffffffffffffffffffffffffffffffffffffffff16815260200190815260200160002060008373ffffffffffffffffffffffffffffffffffffffff1673ffffffffffffffffffffffffffffffffffffffff16815260200190815260200160002054905092915050565b600033905090565b600073ffffffffffffffffffffffffffffffffffffffff168373ffffffffffffffffffffffffffffffffffffffff161415610a30576040517f08c379a0000000000000000000000000000000000000000000000000000000008152600401610a279061144a565b60405180910390fd5b600073ffffffffffffffffffffffffffffffffffffffff168273ffffffffffffffffffffffffffffffffffffffff161415610aa0576040517f08c379a0000000000000000000000000000000000000000000000000000000008152600401610a97906113aa565b60405180910390fd5b80600160008573ffffffffffffffffffffffffffffffffffffffff1673ffffffffffffffffffffffffffffffffffffffff16815260200190815260200160002060008473ffffffffffffffffffffffffffffffffffffffff1673ffffffffffffffffffffffffffffffffffffffff168152602001908152602001600020819055508173ffffffffffffffffffffffffffffffffffffffff168373ffffffffffffffffffffffffffffffffffffffff167f8c5be1e5ebec7d5bd14f71427d1e84f3dd0314c0f7b2291e5b200ac8c7c3b92583604051610b7e919061148a565b60405180910390a3505050565b600073ffffffffffffffffffffffffffffffffffffffff168373ffffffffffffffffffffffffffffffffffffffff161415610bfb576040517f08c379a0000000000000000000000000000000000000000000000000000000008152600401610bf29061140a565b60405180910390fd5b600073ffffffffffffffffffffffffffffffffffffffff168273ffffffffffffffffffffffffffffffffffffffff161415610c6b576040517f08c379a0000000000000000000000000000000000000000000000000000000008152600401610c629061138a565b60405180910390fd5b610c76838383611076565b610ce1816040518060600160405280602681526020016118ef602691396000808773ffffffffffffffffffffffffffffffffffffffff1673ffffffffffffffffffffffffffffffffffffffff16815260200190815260200160002054610e209092919063ffffffff16565b6000808573ffffffffffffffffffffffffffffffffffffffff1673ffffffffffffffffffffffffffffffffffffffff16815260200190815260200160002081905550610d74816000808573ffffffffffffffffffffffffffffffffffffffff1673ffffffffffffffffffffffffffffffffffffffff16815260200190815260200160002054610e8490919063ffffffff16565b6000808473ffffffffffffffffffffffffffffffffffffffff1673ffffffffffffffffffffffffffffffffffffffff168152602001908152602001600020819055508173ffffffffffffffffffffffffffffffffffffffff168373ffffffffffffffffffffffffffffffffffffffff167fddf252ad1be2c89b69c2b068fc378daa952ba7f163c4a11628f55a4df523b3ef83604051610e13919061148a565b60405180910390a3505050565b6000838311158290610e68576040517f08c379a0000000000000000000000000000000000000000000000000000000008152600401610e5f9190611368565b60405180910390fd5b5060008385610e779190611532565b9050809150509392505050565b6000808284610e9391906114dc565b905083811015610ed8576040517f08c379a0000000000000000000000000000000000000000000000000000000008152600401610ecf906113ea565b60405180910390fd5b8091505092915050565b600073ffffffffffffffffffffffffffffffffffffffff168273ffffffffffffffffffffffffffffffffffffffff161415610f52576040517f08c379a0000000000000000000000000000000000000000000000000000000008152600401610f499061146a565b60405180910390fd5b610f5e60008383611076565b610f7381600254610e8490919063ffffffff16565b600281905550610fca816000808573ffffffffffffffffffffffffffffffffffffffff1673ffffffffffffffffffffffffffffffffffffffff16815260200190815260200160002054610e8490919063ffffffff16565b6000808473ffffffffffffffffffffffffffffffffffffffff1673ffffffffffffffffffffffffffffffffffffffff168152602001908152602001600020819055508173ffffffffffffffffffffffffffffffffffffffff16600073ffffffffffffffffffffffffffffffffffffffff167fddf252ad1be2c89b69c2b068fc378daa952ba7f163c4a11628f55a4df523b3ef8360405161106a919061148a565b60405180910390a35050565b505050565b60008135905061108a816118c0565b92915050565b60008135905061109f816118d7565b92915050565b6000602082840312156110bb576110ba61167e565b5b60006110c98482850161107b565b91505092915050565b600080604083850312156110e9576110e861167e565b5b60006110f78582860161107b565b92505060206111088582860161107b565b9150509250929050565b60008060006060848603121561112b5761112a61167e565b5b60006111398682870161107b565b935050602061114a8682870161107b565b925050604061115b86828701611090565b9150509250925092565b6000806040838503121561117c5761117b61167e565b5b600061118a8582860161107b565b925050602061119b85828601611090565b9150509250929050565b6111ae81611566565b82525050565b6111bd81611578565b82525050565b60006111ce826114c0565b6111d881856114cb565b93506111e88185602086016115bb565b6111f181611683565b840191505092915050565b60006112096023836114cb565b915061121482611694565b604082019050919050565b600061122c6022836114cb565b9150611237826116e3565b604082019050919050565b600061124f602a836114cb565b915061125a82611732565b604082019050919050565b6000611272601b836114cb565b915061127d82611781565b602082019050919050565b60006112956025836114cb565b91506112a0826117aa565b604082019050919050565b60006112b8602c836114cb565b91506112c3826117f9565b604082019050919050565b60006112db6024836114cb565b91506112e682611848565b604082019050919050565b60006112fe601f836114cb565b915061130982611897565b602082019050919050565b61131d816115a4565b82525050565b61132c816115ae565b82525050565b600060208201905061134760008301846111a5565b92915050565b600060208201905061136260008301846111b4565b92915050565b6000602082019050818103600083015261138281846111c3565b905092915050565b600060208201905081810360008301526113a3816111fc565b9050919050565b600060208201905081810360008301526113c38161121f565b9050919050565b600060208201905081810360008301526113e381611242565b9050919050565b6000602082019050818103600083015261140381611265565b9050919050565b6000602082019050818103600083015261142381611288565b9050919050565b60006020820190508181036000830152611443816112ab565b9050919050565b60006020820190508181036000830152611463816112ce565b9050919050565b60006020820190508181036000830152611483816112f1565b9050919050565b600060208201905061149f6000830184611314565b92915050565b60006020820190506114ba6000830184611323565b92915050565b600081519050919050565b600082825260208201905092915050565b60006114e7826115a4565b91506114f2836115a4565b9250827fffffffffffffffffffffffffffffffffffffffffffffffffffffffffffffffff0382111561152757611526611620565b5b828201905092915050565b600061153d826115a4565b9150611548836115a4565b92508282101561155b5761155a611620565b5b828203905092915050565b600061157182611584565b9050919050565b60008115159050919050565b600073ffffffffffffffffffffffffffffffffffffffff82169050919050565b6000819050919050565b600060ff82169050919050565b60005b838110156115d95780820151818401526020810190506115be565b838111156115e8576000848401525b50505050565b6000600282049050600182168061160657607f821691505b6020821081141561161a5761161961164f565b5b50919050565b7f4e487b7100000000000000000000000000000000000000000000000000000000600052601160045260246000fd5b7f4e487b7100000000000000000000000000000000000000000000000000000000600052602260045260246000fd5b600080fd5b6000601f19601f8301169050919050565b7f45524332303a207472616e7366657220746f20746865207a65726f206164647260008201527f6573730000000000000000000000000000000000000000000000000000000000602082015250565b7f45524332303a20617070726f766520746f20746865207a65726f20616464726560008201527f7373000000000000000000000000000000000000000000000000000000000000602082015250565b7f4572726f722c6d73672e73656e64657220646f6573206e6f742068617665206d60008201527f696e74657220726f6c6500000000000000000000000000000000000000000000602082015250565b7f536166654d6174683a206164646974696f6e206f766572666c6f770000000000600082015250565b7f45524332303a207472616e736665722066726f6d20746865207a65726f20616460008201527f6472657373000000000000000000000000000000000000000000000000000000602082015250565b7f4572726f722c6f6e6c79206f776e65722063616e206368616e6765207061737360008201527f206d696e74657220726f6c650000000000000000000000000000000000000000602082015250565b7f45524332303a20617070726f76652066726f6d20746865207a65726f2061646460008201527f7265737300000000000000000000000000000000000000000000000000000000602082015250565b7f45524332303a206d696e7420746f20746865207a65726f206164647265737300600082015250565b6118c981611566565b81146118d457600080fd5b50565b6118e0816115a4565b81146118eb57600080fd5b5056fe45524332303a207472616e7366657220616d6f756e7420657863656564732062616c616e636545524332303a207472616e7366657220616d6f756e74206578636565647320616c6c6f77616e636545524332303a2064656372656173656420616c6c6f77616e63652062656c6f77207a65726fa2646970667358221220b90fe23ab21d39377be58432c86085798a9e7eda78e4680266eaa239f0d1c0bd64736f6c63430008050033",
  "immutableReferences": {},
  "source": "// SPDX-License-Identifier: MIT\npragma solidity ^0.8.0;\n\nimport \"@openzeppelin/contracts/token/ERC20/ERC20.sol\";\n\ncontract Token is ERC20 {\n  //add minter variable\n  address public  minter;\n\n  event MinterChanged(address indexed from,address to); \n\n  constructor() payable ERC20(\"Joe Coin\", \"JC\") {\n    //asign initial minter\n    minter = msg.sender;\n  }\n   \n  function passMinterRole(address dBank) public returns(bool) {\n     require(msg.sender == minter,\"Error,only owner can change pass minter role\");\n     minter = dBank;\n\n     emit MinterChanged(msg.sender,dBank);\n     return true;\n  } \n\n  function mint(address account, uint256 amount) public {\n    //check if msg.sender have minter role\n    require(msg.sender == minter,\"Error,msg.sender does not have minter role\");\n\t\t_mint(account, amount);\n\t}\n}\n",
  "sourcePath": "/home/joel/Vol/Vol. C/Path Research/Blockchain/Dapp Projects/DeFi App/dbank/src/contracts/Token.sol",
  "compiler": {
    "name": "solc",
    "version": "0.8.5+commit.a4f2e591.Emscripten.clang"
  },
  "schemaVersion": "3.4.3",
  "updatedAt": "2021-12-15T11:49:37.845Z",
  "networkType": "ethereum",
  "devdoc": {
    "kind": "dev",
    "methods": {
      "allowance(address,address)": {
        "details": "See {IERC20-allowance}."
      },
      "approve(address,uint256)": {
        "details": "See {IERC20-approve}. Requirements: - `spender` cannot be the zero address."
      },
      "balanceOf(address)": {
        "details": "See {IERC20-balanceOf}."
      },
      "decimals()": {
        "details": "Returns the number of decimals used to get its user representation. For example, if `decimals` equals `2`, a balance of `505` tokens should be displayed to a user as `5,05` (`505 / 10 ** 2`). Tokens usually opt for a value of 18, imitating the relationship between Ether and Wei. This is the value {ERC20} uses, unless {_setupDecimals} is called. NOTE: This information is only used for _display_ purposes: it in no way affects any of the arithmetic of the contract, including {IERC20-balanceOf} and {IERC20-transfer}."
      },
      "decreaseAllowance(address,uint256)": {
        "details": "Atomically decreases the allowance granted to `spender` by the caller. This is an alternative to {approve} that can be used as a mitigation for problems described in {IERC20-approve}. Emits an {Approval} event indicating the updated allowance. Requirements: - `spender` cannot be the zero address. - `spender` must have allowance for the caller of at least `subtractedValue`."
      },
      "increaseAllowance(address,uint256)": {
        "details": "Atomically increases the allowance granted to `spender` by the caller. This is an alternative to {approve} that can be used as a mitigation for problems described in {IERC20-approve}. Emits an {Approval} event indicating the updated allowance. Requirements: - `spender` cannot be the zero address."
      },
      "name()": {
        "details": "Returns the name of the token."
      },
      "symbol()": {
        "details": "Returns the symbol of the token, usually a shorter version of the name."
      },
      "totalSupply()": {
        "details": "See {IERC20-totalSupply}."
      },
      "transfer(address,uint256)": {
        "details": "See {IERC20-transfer}. Requirements: - `recipient` cannot be the zero address. - the caller must have a balance of at least `amount`."
      },
      "transferFrom(address,address,uint256)": {
        "details": "See {IERC20-transferFrom}. Emits an {Approval} event indicating the updated allowance. This is not required by the EIP. See the note at the beginning of {ERC20}. Requirements: - `sender` and `recipient` cannot be the zero address. - `sender` must have a balance of at least `amount`. - the caller must have allowance for ``sender``'s tokens of at least `amount`."
      }
    },
    "version": 1
  },
  "userdoc": {
    "kind": "user",
    "methods": {},
    "version": 1
  }
}